:03000000020100FA
:10010000748090FE23F0740090FE22F0743890FE0C
:1001100021F0740490FE22F0740090FE22F012018F
:100120008B740F90FE21F0740490FE22F074009006
:10013000FE22F012018B120218120153362E3131B9
:10014000352052756C6573212059656168686800B7
:10015000020194D083D082E493B40002800612019D
:1001600067A380F3740173C083C08212018BFA7499
:100170000190FE22F0EA90FE21F0740590FE22F03C
:10018000740190FE22F0D082D0832278007914D8B6
:10019000FED9FC22740090FE30F012018B90FE30EC
:1001A000E0F590790178F4FA88F0A4FBC0F0EA89D0
:1001B000F0A4D0072FFCE435F0FD120218EDFFEC9F
:1001C0001201D51201C880CC780079007A03D8FEDC
:1001D000D9FCDAFA22C3240550027F01DF1F240B69
:1001E00075F00A8475F00A241984AEF024301201E7
:1001F00067742E12016774302E1201672275F00A9F
:100200008475F00A84AEF02430120167742E120156
:100210006774302E12016722740190FE21F074047D
:1002200090FE22F0740090FE22F012018B74009078
:10023000FE22F0748090FE21F0740490FE22F0748F
:090240000090FE22F012018B2255
:00000001FF
